{
  "contractName": "Basic",
  "abi": [
    {
      "constant": true,
      "inputs": [],
      "name": "_totalSupply",
      "outputs": [
        {
          "name": "",
          "type": "uint256"
        }
      ],
      "payable": false,
      "stateMutability": "view",
      "type": "function"
    },
    {
      "constant": true,
      "inputs": [],
      "name": "transfersAllowed",
      "outputs": [
        {
          "name": "",
          "type": "bool"
        }
      ],
      "payable": false,
      "stateMutability": "view",
      "type": "function"
    },
    {
      "anonymous": false,
      "inputs": [
        {
          "indexed": true,
          "name": "from",
          "type": "address"
        },
        {
          "indexed": true,
          "name": "to",
          "type": "address"
        },
        {
          "indexed": false,
          "name": "value",
          "type": "uint256"
        }
      ],
      "name": "Transfer",
      "type": "event"
    },
    {
      "anonymous": false,
      "inputs": [
        {
          "indexed": true,
          "name": "owner",
          "type": "address"
        },
        {
          "indexed": true,
          "name": "spender",
          "type": "address"
        },
        {
          "indexed": false,
          "name": "value",
          "type": "uint256"
        }
      ],
      "name": "Approval",
      "type": "event"
    },
    {
      "constant": true,
      "inputs": [
        {
          "name": "_tokenOwner",
          "type": "address"
        }
      ],
      "name": "balanceOf",
      "outputs": [
        {
          "name": "balance",
          "type": "uint256"
        }
      ],
      "payable": false,
      "stateMutability": "view",
      "type": "function"
    },
    {
      "constant": true,
      "inputs": [
        {
          "name": "_tokenOwner",
          "type": "address"
        },
        {
          "name": "_spender",
          "type": "address"
        }
      ],
      "name": "allowance",
      "outputs": [
        {
          "name": "remaining",
          "type": "uint256"
        }
      ],
      "payable": false,
      "stateMutability": "view",
      "type": "function"
    },
    {
      "constant": false,
      "inputs": [
        {
          "name": "_to",
          "type": "address"
        },
        {
          "name": "_tokens",
          "type": "uint256"
        }
      ],
      "name": "transfer",
      "outputs": [
        {
          "name": "success",
          "type": "bool"
        }
      ],
      "payable": false,
      "stateMutability": "nonpayable",
      "type": "function"
    },
    {
      "constant": false,
      "inputs": [
        {
          "name": "_spender",
          "type": "address"
        },
        {
          "name": "_tokens",
          "type": "uint256"
        }
      ],
      "name": "approve",
      "outputs": [
        {
          "name": "success",
          "type": "bool"
        }
      ],
      "payable": false,
      "stateMutability": "nonpayable",
      "type": "function"
    },
    {
      "constant": false,
      "inputs": [
        {
          "name": "_from",
          "type": "address"
        },
        {
          "name": "_to",
          "type": "address"
        },
        {
          "name": "_tokens",
          "type": "uint256"
        }
      ],
      "name": "transferFrom",
      "outputs": [
        {
          "name": "success",
          "type": "bool"
        }
      ],
      "payable": false,
      "stateMutability": "nonpayable",
      "type": "function"
    },
    {
      "constant": true,
      "inputs": [],
      "name": "totalSupply",
      "outputs": [
        {
          "name": "",
          "type": "uint256"
        }
      ],
      "payable": false,
      "stateMutability": "view",
      "type": "function"
    }
  ],
  "bytecode": "0x608060405234801561001057600080fd5b50610556806100206000396000f30060806040526004361061008d5763ffffffff7c0100000000000000000000000000000000000000000000000000000000600035041663095ea7b3811461009257806318160ddd146100ca57806323b872dd146100f15780633eaaf86b1461011b57806370a0823114610130578063a9059cbb14610151578063b0660c3d14610175578063dd62ed3e1461018a575b600080fd5b34801561009e57600080fd5b506100b6600160a060020a03600435166024356101b1565b604080519115158252519081900360200190f35b3480156100d657600080fd5b506100df610217565b60408051918252519081900360200190f35b3480156100fd57600080fd5b506100b6600160a060020a036004358116906024351660443561021d565b34801561012757600080fd5b506100df6103a4565b34801561013c57600080fd5b506100df600160a060020a03600435166103aa565b34801561015d57600080fd5b506100b6600160a060020a03600435166024356103c5565b34801561018157600080fd5b506100b66104c8565b34801561019657600080fd5b506100df600160a060020a03600435811690602435166104d1565b336000818152600160209081526040808320600160a060020a038716808552908352818420869055815186815291519394909390927f8c5be1e5ebec7d5bd14f71427d1e84f3dd0314c0f7b2291e5b200ac8c7c3b925928290030190a350600192915050565b60025490565b60035460009060ff16151560011461023457600080fd5b600160a060020a038316151561024957600080fd5b600160a060020a03841660009081526020819052604090205482111561026e57600080fd5b600160a060020a038416600090815260016020908152604080832033845290915290205482111561029e57600080fd5b600160a060020a0384166000908152602081905260409020546102c7908363ffffffff6104fc16565b600160a060020a038516600090815260208181526040808320939093556001815282822033835290522054610302908363ffffffff6104fc16565b600160a060020a0380861660009081526001602090815260408083203384528252808320949094559186168152908190522054610345908363ffffffff61051116565b600160a060020a038085166000818152602081815260409182902094909455805186815290519193928816927fddf252ad1be2c89b69c2b068fc378daa952ba7f163c4a11628f55a4df523b3ef92918290030190a35060019392505050565b60025481565b600160a060020a031660009081526020819052604090205490565b6000600160a060020a03831615156103dc57600080fd5b60035460ff1615156001146103f057600080fd5b33600090815260208190526040902054821180159061040f5750600082115b151561041a57600080fd5b3360009081526020819052604090205461043a908363ffffffff6104fc16565b3360009081526020819052604080822092909255600160a060020a0385168152205461046c908363ffffffff61051116565b600160a060020a038416600081815260208181526040918290209390935580518581529051919233927fddf252ad1be2c89b69c2b068fc378daa952ba7f163c4a11628f55a4df523b3ef9281900390910190a350600192915050565b60035460ff1681565b600160a060020a03918216600090815260016020908152604080832093909416825291909152205490565b60008282111561050b57600080fd5b50900390565b60008282018381101561052357600080fd5b93925050505600a165627a7a723058208639b6c7b25a7072d630bd10fbfa0b8ad3564714ea680faac71a96e6050f74560029",
  "source": "pragma solidity ^0.4.23;\r\n\r\nimport \"./SafeMath.sol\";\r\nimport \"./ERC20Enhanced.sol\";\r\n\r\n\r\ncontract Basic is IERC20Enhanced {\r\n\r\n\r\n    using SafeMath for uint;\r\n\r\n    bool public transfersAllowed;\r\n\r\n    function balanceOf(address _tokenOwner) public view returns (uint balance) {\r\n        return balances[_tokenOwner];\r\n    }\r\n\r\n    function allowance(address _tokenOwner, address _spender) public view returns (uint remaining) {\r\n        return allowed[_tokenOwner][_spender];\r\n    }\r\n\r\n    function transfer(address _to, uint _tokens) public returns (bool success) {\r\n        require(_to != address(0));\r\n        require(transfersAllowed == true);\r\n        require(_tokens <= balances[msg.sender] && _tokens > 0);\r\n\r\n        balances[msg.sender] = balances[msg.sender].sub(_tokens);\r\n        balances[_to] = balances[_to].add(_tokens);\r\n        emit Transfer(msg.sender, _to, _tokens);\r\n        return true;\r\n    }\r\n\r\n    function approve(address _spender, uint _tokens) public returns (bool success) {\r\n        allowed[msg.sender][_spender] = _tokens;\r\n        emit Approval(msg.sender, _spender, _tokens);\r\n        return true;\r\n    }\r\n\r\n    function transferFrom(address _from, address _to, uint _tokens) public returns (bool success) {\r\n        require(transfersAllowed == true);\r\n        require(_to != address(0));\r\n        require(_tokens <= balances[_from]);\r\n        require(_tokens <= allowed[_from][msg.sender]);\r\n\r\n        balances[_from] = balances[_from].sub(_tokens);\r\n        allowed[_from][msg.sender] = allowed[_from][msg.sender].sub(_tokens);\r\n        balances[_to] = balances[_to].add(_tokens);\r\n        emit Transfer(_from, _to, _tokens);\r\n        return true;\r\n    }\r\n\r\n    function totalSupply() public view returns (uint) {\r\n        return _totalSupply;\r\n    }\r\n\r\n}\r\n",
  "sourcePath": "C:\\Users\\DXenu\\Desktop\\box\\token_sale_starter\\contracts\\templates\\Basic.sol",
  "compiler": {
    "name": "solc",
    "version": "0.4.24+commit.e67f0147.Emscripten.clang"
  },
  "schemaVersion": "2.0.0",
  "updatedAt": "2018-06-09T08:12:40.646Z"
}