{
  "contractName": "Crowdsale",
  "abi": [
    {
      "constant": false,
      "inputs": [
        {
          "name": "_spender",
          "type": "address"
        },
        {
          "name": "_tokens",
          "type": "uint256"
        }
      ],
      "name": "approve",
      "outputs": [
        {
          "name": "success",
          "type": "bool"
        }
      ],
      "payable": false,
      "stateMutability": "nonpayable",
      "type": "function"
    },
    {
      "constant": true,
      "inputs": [],
      "name": "bot",
      "outputs": [
        {
          "name": "",
          "type": "address"
        }
      ],
      "payable": false,
      "stateMutability": "view",
      "type": "function"
    },
    {
      "constant": true,
      "inputs": [],
      "name": "totalSupply",
      "outputs": [
        {
          "name": "",
          "type": "uint256"
        }
      ],
      "payable": false,
      "stateMutability": "view",
      "type": "function"
    },
    {
      "constant": false,
      "inputs": [
        {
          "name": "_from",
          "type": "address"
        },
        {
          "name": "_to",
          "type": "address"
        },
        {
          "name": "_tokens",
          "type": "uint256"
        }
      ],
      "name": "transferFrom",
      "outputs": [
        {
          "name": "success",
          "type": "bool"
        }
      ],
      "payable": false,
      "stateMutability": "nonpayable",
      "type": "function"
    },
    {
      "constant": true,
      "inputs": [],
      "name": "rate",
      "outputs": [
        {
          "name": "",
          "type": "uint256"
        }
      ],
      "payable": false,
      "stateMutability": "view",
      "type": "function"
    },
    {
      "constant": true,
      "inputs": [],
      "name": "decimals",
      "outputs": [
        {
          "name": "",
          "type": "uint8"
        }
      ],
      "payable": false,
      "stateMutability": "view",
      "type": "function"
    },
    {
      "constant": true,
      "inputs": [],
      "name": "_totalSupply",
      "outputs": [
        {
          "name": "",
          "type": "uint256"
        }
      ],
      "payable": false,
      "stateMutability": "view",
      "type": "function"
    },
    {
      "constant": true,
      "inputs": [],
      "name": "weiRaised",
      "outputs": [
        {
          "name": "",
          "type": "uint256"
        }
      ],
      "payable": false,
      "stateMutability": "view",
      "type": "function"
    },
    {
      "constant": true,
      "inputs": [],
      "name": "icoState",
      "outputs": [
        {
          "name": "",
          "type": "uint8"
        }
      ],
      "payable": false,
      "stateMutability": "view",
      "type": "function"
    },
    {
      "constant": true,
      "inputs": [],
      "name": "shouldWhitelist",
      "outputs": [
        {
          "name": "",
          "type": "bool"
        }
      ],
      "payable": false,
      "stateMutability": "view",
      "type": "function"
    },
    {
      "constant": true,
      "inputs": [],
      "name": "validate",
      "outputs": [
        {
          "name": "",
          "type": "bool"
        }
      ],
      "payable": false,
      "stateMutability": "view",
      "type": "function"
    },
    {
      "constant": false,
      "inputs": [
        {
          "name": "_bot",
          "type": "address"
        }
      ],
      "name": "setBot",
      "outputs": [],
      "payable": false,
      "stateMutability": "nonpayable",
      "type": "function"
    },
    {
      "constant": true,
      "inputs": [],
      "name": "tokenName",
      "outputs": [
        {
          "name": "",
          "type": "bytes32"
        }
      ],
      "payable": false,
      "stateMutability": "view",
      "type": "function"
    },
    {
      "constant": true,
      "inputs": [
        {
          "name": "_tokenOwner",
          "type": "address"
        }
      ],
      "name": "balanceOf",
      "outputs": [
        {
          "name": "balance",
          "type": "uint256"
        }
      ],
      "payable": false,
      "stateMutability": "view",
      "type": "function"
    },
    {
      "constant": true,
      "inputs": [],
      "name": "owner",
      "outputs": [
        {
          "name": "",
          "type": "address"
        }
      ],
      "payable": false,
      "stateMutability": "view",
      "type": "function"
    },
    {
      "constant": true,
      "inputs": [],
      "name": "symbol",
      "outputs": [
        {
          "name": "",
          "type": "bytes32"
        }
      ],
      "payable": false,
      "stateMutability": "view",
      "type": "function"
    },
    {
      "constant": false,
      "inputs": [
        {
          "name": "_to",
          "type": "address"
        },
        {
          "name": "_tokens",
          "type": "uint256"
        }
      ],
      "name": "transfer",
      "outputs": [
        {
          "name": "success",
          "type": "bool"
        }
      ],
      "payable": false,
      "stateMutability": "nonpayable",
      "type": "function"
    },
    {
      "constant": true,
      "inputs": [],
      "name": "transfersAllowed",
      "outputs": [
        {
          "name": "",
          "type": "bool"
        }
      ],
      "payable": false,
      "stateMutability": "view",
      "type": "function"
    },
    {
      "constant": true,
      "inputs": [
        {
          "name": "",
          "type": "bytes32"
        }
      ],
      "name": "hashes",
      "outputs": [
        {
          "name": "index",
          "type": "uint256"
        }
      ],
      "payable": false,
      "stateMutability": "view",
      "type": "function"
    },
    {
      "constant": true,
      "inputs": [
        {
          "name": "_tokenOwner",
          "type": "address"
        },
        {
          "name": "_spender",
          "type": "address"
        }
      ],
      "name": "allowance",
      "outputs": [
        {
          "name": "remaining",
          "type": "uint256"
        }
      ],
      "payable": false,
      "stateMutability": "view",
      "type": "function"
    },
    {
      "constant": false,
      "inputs": [
        {
          "name": "newOwner",
          "type": "address"
        }
      ],
      "name": "transferOwnership",
      "outputs": [],
      "payable": false,
      "stateMutability": "nonpayable",
      "type": "function"
    },
    {
      "constant": true,
      "inputs": [
        {
          "name": "",
          "type": "uint256"
        }
      ],
      "name": "hashIndex",
      "outputs": [
        {
          "name": "",
          "type": "bytes32"
        }
      ],
      "payable": false,
      "stateMutability": "view",
      "type": "function"
    },
    {
      "inputs": [],
      "payable": false,
      "stateMutability": "nonpayable",
      "type": "constructor"
    },
    {
      "payable": true,
      "stateMutability": "payable",
      "type": "fallback"
    },
    {
      "anonymous": false,
      "inputs": [],
      "name": "RunIco",
      "type": "event"
    },
    {
      "anonymous": false,
      "inputs": [],
      "name": "PauseIco",
      "type": "event"
    },
    {
      "anonymous": false,
      "inputs": [],
      "name": "FinishIco",
      "type": "event"
    },
    {
      "anonymous": false,
      "inputs": [
        {
          "indexed": false,
          "name": "_recipient",
          "type": "address"
        },
        {
          "indexed": false,
          "name": "_tokens",
          "type": "uint256"
        },
        {
          "indexed": false,
          "name": "_txHash",
          "type": "bytes32"
        }
      ],
      "name": "Foreign",
      "type": "event"
    },
    {
      "anonymous": false,
      "inputs": [
        {
          "indexed": true,
          "name": "previousOwner",
          "type": "address"
        },
        {
          "indexed": true,
          "name": "newOwner",
          "type": "address"
        }
      ],
      "name": "OwnershipTransferred",
      "type": "event"
    },
    {
      "anonymous": false,
      "inputs": [
        {
          "indexed": true,
          "name": "from",
          "type": "address"
        },
        {
          "indexed": true,
          "name": "to",
          "type": "address"
        },
        {
          "indexed": false,
          "name": "value",
          "type": "uint256"
        }
      ],
      "name": "Transfer",
      "type": "event"
    },
    {
      "anonymous": false,
      "inputs": [
        {
          "indexed": true,
          "name": "owner",
          "type": "address"
        },
        {
          "indexed": true,
          "name": "spender",
          "type": "address"
        },
        {
          "indexed": false,
          "name": "value",
          "type": "uint256"
        }
      ],
      "name": "Approval",
      "type": "event"
    },
    {
      "constant": false,
      "inputs": [
        {
          "name": "_symbol",
          "type": "bytes32"
        },
        {
          "name": "_name",
          "type": "bytes32"
        },
        {
          "name": "_decimals",
          "type": "uint8"
        },
        {
          "name": "_rate",
          "type": "uint256"
        }
      ],
      "name": "setParams",
      "outputs": [],
      "payable": false,
      "stateMutability": "nonpayable",
      "type": "function"
    },
    {
      "constant": false,
      "inputs": [
        {
          "name": "_rate",
          "type": "uint256"
        }
      ],
      "name": "setRate",
      "outputs": [],
      "payable": false,
      "stateMutability": "nonpayable",
      "type": "function"
    },
    {
      "constant": false,
      "inputs": [],
      "name": "setWhitelisting",
      "outputs": [],
      "payable": false,
      "stateMutability": "nonpayable",
      "type": "function"
    },
    {
      "constant": false,
      "inputs": [],
      "name": "unsetWhitelisting",
      "outputs": [],
      "payable": false,
      "stateMutability": "nonpayable",
      "type": "function"
    },
    {
      "constant": false,
      "inputs": [
        {
          "name": "_spender",
          "type": "address"
        },
        {
          "name": "_addedValue",
          "type": "uint256"
        }
      ],
      "name": "increaseApproval",
      "outputs": [
        {
          "name": "",
          "type": "bool"
        }
      ],
      "payable": false,
      "stateMutability": "nonpayable",
      "type": "function"
    },
    {
      "constant": false,
      "inputs": [
        {
          "name": "_spender",
          "type": "address"
        },
        {
          "name": "_subtractedValue",
          "type": "uint256"
        }
      ],
      "name": "decreaseApproval",
      "outputs": [
        {
          "name": "",
          "type": "bool"
        }
      ],
      "payable": false,
      "stateMutability": "nonpayable",
      "type": "function"
    },
    {
      "constant": false,
      "inputs": [
        {
          "name": "_tokenOwner",
          "type": "address"
        }
      ],
      "name": "reclaimToken",
      "outputs": [
        {
          "name": "",
          "type": "bool"
        }
      ],
      "payable": false,
      "stateMutability": "nonpayable",
      "type": "function"
    },
    {
      "constant": false,
      "inputs": [
        {
          "name": "_beneficiary",
          "type": "address"
        }
      ],
      "name": "addToWhitelist",
      "outputs": [],
      "payable": false,
      "stateMutability": "nonpayable",
      "type": "function"
    },
    {
      "constant": false,
      "inputs": [
        {
          "name": "_beneficiaries",
          "type": "address[]"
        }
      ],
      "name": "addManyToWhitelist",
      "outputs": [],
      "payable": false,
      "stateMutability": "nonpayable",
      "type": "function"
    },
    {
      "constant": false,
      "inputs": [
        {
          "name": "_beneficiary",
          "type": "address"
        }
      ],
      "name": "removeFromWhitelist",
      "outputs": [],
      "payable": false,
      "stateMutability": "nonpayable",
      "type": "function"
    },
    {
      "constant": true,
      "inputs": [
        {
          "name": "_beneficiary",
          "type": "address"
        }
      ],
      "name": "getWhitelistStatus",
      "outputs": [
        {
          "name": "",
          "type": "bool"
        }
      ],
      "payable": false,
      "stateMutability": "view",
      "type": "function"
    },
    {
      "constant": false,
      "inputs": [
        {
          "name": "_recipient",
          "type": "address"
        }
      ],
      "name": "burnTokens",
      "outputs": [],
      "payable": false,
      "stateMutability": "nonpayable",
      "type": "function"
    },
    {
      "constant": false,
      "inputs": [],
      "name": "withdraw",
      "outputs": [],
      "payable": false,
      "stateMutability": "nonpayable",
      "type": "function"
    },
    {
      "constant": false,
      "inputs": [],
      "name": "allowTransfers",
      "outputs": [],
      "payable": false,
      "stateMutability": "nonpayable",
      "type": "function"
    },
    {
      "constant": false,
      "inputs": [],
      "name": "disableTransfers",
      "outputs": [],
      "payable": false,
      "stateMutability": "nonpayable",
      "type": "function"
    },
    {
      "constant": false,
      "inputs": [],
      "name": "startIco",
      "outputs": [],
      "payable": false,
      "stateMutability": "nonpayable",
      "type": "function"
    },
    {
      "constant": false,
      "inputs": [],
      "name": "pauseIco",
      "outputs": [],
      "payable": false,
      "stateMutability": "nonpayable",
      "type": "function"
    },
    {
      "constant": false,
      "inputs": [],
      "name": "finishIco",
      "outputs": [],
      "payable": false,
      "stateMutability": "nonpayable",
      "type": "function"
    },
    {
      "constant": true,
      "inputs": [
        {
          "name": "_hash",
          "type": "bytes32"
        }
      ],
      "name": "hashExists",
      "outputs": [
        {
          "name": "",
          "type": "bool"
        }
      ],
      "payable": false,
      "stateMutability": "view",
      "type": "function"
    },
    {
      "constant": false,
      "inputs": [
        {
          "name": "_recipient",
          "type": "address"
        },
        {
          "name": "_tokens",
          "type": "uint256"
        },
        {
          "name": "_txHash",
          "type": "bytes32"
        }
      ],
      "name": "foreignBuy",
      "outputs": [],
      "payable": false,
      "stateMutability": "nonpayable",
      "type": "function"
    }
  ],
  "bytecode": "0x60806040526004805460a060020a60ff0219169055600a805460ff19169055600019600c5534801561003057600080fd5b5060038054600a805461ff00191690557f544f4b00000000000000000000000000000000000000000000000000000000006005557f54657374546f6b656e0000000000000000000000000000000000000000000000600655600882905560078054601260ff199182161790915561010060a860020a031990911633610100021716905561186e806100c26000396000f3006080604052600436106102035763ffffffff7c0100000000000000000000000000000000000000000000000000000000600035041663095ea7b3811461038e57806310814c37146103c657806317ffc320146103f757806318160ddd146104185780632185810b1461043f57806323b872dd146104565780632c4e722e14610480578063313ce5671461049557806334fcf437146104c05780633a67a0f6146104d85780633ccfd60b146104ed5780633eaaf86b146105025780634042b66f1461051757806344f387561461052c5780634e3aa00b14610565578063603f152c1461057a578063628291021461058f57806366188463146105b65780636901f668146105da5780636b5caec4146105ef5780636c02a9311461061057806370a08231146106255780638670bed81461064657806389311e6f1461065b5780638ab1d681146106705780638c10671c146106915780638da5cb5b146106e657806395d89b41146106fb578063a9059cbb14610710578063b0660c3d14610734578063b237f7d414610749578063b535b5c31461076a578063c4fdc6b814610782578063d658d2e914610797578063d73dd623146107af578063d9ba32fc146107d3578063dd62ed3e146107f4578063e43252d71461081b578063ec42f82f1461083c578063f2fde38b14610851578063f8b769c514610872578063f8c5ffcf14610896575b600080600033600a60019054906101000a900460ff161561024557600160a060020a0381166000908152600b602052604090205460ff16151561024557600080fd5b600a5460ff161561025557600080fd5b600a805460ff1916600190811790915560045460a060020a900460ff16600381111561027d57fe5b1461028757600080fd5b34935033925082158015906102af5750600354600160a060020a038481166101009092041614155b15156102ba57600080fd5b8315156102c657600080fd5b600c546008546102dd90869063ffffffff6108ae16565b11156102e857600080fd5b6008546102fc90859063ffffffff6108ae16565b915061030883836108e7565b600354604051610100909104600160a060020a0316906108fc8615029086906000818181858888f19350505050158015610346573d6000803e3d6000fd5b50600c5460095461035d908663ffffffff6109a516565b111561036857600080fd5b60095461037b908563ffffffff6109a516565b6009555050600a805460ff191690555050005b34801561039a57600080fd5b506103b2600160a060020a03600435166024356109b7565b604080519115158252519081900360200190f35b3480156103d257600080fd5b506103db610a1d565b60408051600160a060020a039092168252519081900360200190f35b34801561040357600080fd5b506103b2600160a060020a0360043516610a2c565b34801561042457600080fd5b5061042d610a78565b60408051918252519081900360200190f35b34801561044b57600080fd5b50610454610a7e565b005b34801561046257600080fd5b506103b2600160a060020a0360043581169060243516604435610ab9565b34801561048c57600080fd5b5061042d610c40565b3480156104a157600080fd5b506104aa610c46565b6040805160ff9092168252519081900360200190f35b3480156104cc57600080fd5b50610454600435610c4f565b3480156104e457600080fd5b50610454610c9d565b3480156104f957600080fd5b50610454610cd9565b34801561050e57600080fd5b5061042d610d39565b34801561052357600080fd5b5061042d610d3f565b34801561053857600080fd5b50610541610d45565b6040518082600381111561055157fe5b60ff16815260200191505060405180910390f35b34801561057157600080fd5b50610454610d55565b34801561058657600080fd5b506103b2610d98565b34801561059b57600080fd5b50610454600160a060020a0360043516602435604435610da6565b3480156105c257600080fd5b506103b2600160a060020a0360043516602435610f27565b3480156105e657600080fd5b506103b2611017565b3480156105fb57600080fd5b50610454600160a060020a036004351661102d565b34801561061c57600080fd5b5061042d611078565b34801561063157600080fd5b5061042d600160a060020a036004351661107e565b34801561065257600080fd5b5061045461109d565b34801561066757600080fd5b506104546110df565b34801561067c57600080fd5b50610454600160a060020a0360043516611192565b34801561069d57600080fd5b5060408051602060048035808201358381028086018501909652808552610454953695939460249493850192918291850190849080828437509497506111cf9650505050505050565b3480156106f257600080fd5b506103db61124d565b34801561070757600080fd5b5061042d611261565b34801561071c57600080fd5b506103b2600160a060020a0360043516602435611267565b34801561074057600080fd5b506103b261136a565b34801561075557600080fd5b50610454600160a060020a0360043516611373565b34801561077657600080fd5b506103b26004356113a9565b34801561078e57600080fd5b506104546113ee565b3480156107a357600080fd5b5061042d60043561148e565b3480156107bb57600080fd5b506103b2600160a060020a03600435166024356114a0565b3480156107df57600080fd5b506103b2600160a060020a0360043516611539565b34801561080057600080fd5b5061042d600160a060020a0360043581169060243516611577565b34801561082757600080fd5b50610454600160a060020a03600435166115a2565b34801561084857600080fd5b506104546115e2565b34801561085d57600080fd5b50610454600160a060020a03600435166116a5565b34801561087e57600080fd5b5061045460043560243560ff6044351660643561174a565b3480156108a257600080fd5b5061042d6004356117d9565b6000808315156108c157600091506108e0565b508282028284828115156108d157fe5b04146108dc57600080fd5b8091505b5092915050565b600c546002546108fd908363ffffffff6109a516565b111561090857600080fd5b600160a060020a038216600090815260208190526040902054610931908263ffffffff6109a516565b600160a060020a03831660009081526020819052604090205560025461095d908263ffffffff6109a516565b600255604080518281529051600160a060020a038416916000917fddf252ad1be2c89b69c2b068fc378daa952ba7f163c4a11628f55a4df523b3ef9181900360200190a35050565b6000828201838110156108dc57600080fd5b336000818152600160209081526040808320600160a060020a038716808552908352818420869055815186815291519394909390927f8c5be1e5ebec7d5bd14f71427d1e84f3dd0314c0f7b2291e5b200ac8c7c3b925928290030190a350600192915050565b600454600160a060020a031681565b60035460009081906101009004600160a060020a03163314610a4d57600080fd5b610a568361107e565b905060008111610a6557600080fd5b610a6f83826117f8565b50600192915050565b60025490565b6003546101009004600160a060020a03163314610a9a57600080fd5b60035460ff1615610aaa57600080fd5b6003805460ff19166001179055565b60035460009060ff161515600114610ad057600080fd5b600160a060020a0383161515610ae557600080fd5b600160a060020a038416600090815260208190526040902054821115610b0a57600080fd5b600160a060020a0384166000908152600160209081526040808320338452909152902054821115610b3a57600080fd5b600160a060020a038416600090815260208190526040902054610b63908363ffffffff61180a16565b600160a060020a038516600090815260208181526040808320939093556001815282822033835290522054610b9e908363ffffffff61180a16565b600160a060020a0380861660009081526001602090815260408083203384528252808320949094559186168152908190522054610be1908363ffffffff6109a516565b600160a060020a038085166000818152602081815260409182902094909455805186815290519193928816927fddf252ad1be2c89b69c2b068fc378daa952ba7f163c4a11628f55a4df523b3ef92918290030190a35060019392505050565b60085481565b60075460ff1681565b6003546101009004600160a060020a03163314610c6b57600080fd5b600081118015610c8d5750600c54610c89908263ffffffff61181f16565b8111155b1515610c9857600080fd5b600855565b6003546101009004600160a060020a03163314610cb957600080fd5b60035460ff161515600114610ccd57600080fd5b6003805460ff19169055565b6003546101009004600160a060020a03163314610cf557600080fd5b600354604051600160a060020a036101009092049190911690303180156108fc02916000818181858888f19350505050158015610d36573d6000803e3d6000fd5b50565b60025481565b60095481565b60045460a060020a900460ff1681565b6003546101009004600160a060020a03163314610d7157600080fd5b600a5460ff610100909104161515600114610d8b57600080fd5b600a805461ff0019169055565b600a54610100900460ff1681565b600454600160a060020a03163314610dbd57600080fd5b600a548390610100900460ff1615610df657600160a060020a0381166000908152600b602052604090205460ff161515610df657600080fd5b610dff826113a9565b15610e0957600080fd5b600354600160a060020a038581166101009092041614801590610e3a5750600454600160a060020a03858116911614155b1515610e4557600080fd5b600160045460a060020a900460ff166003811115610e5f57fe5b14610e6957600080fd5b600083118015610e7b5750600c548311155b1515610e8657600080fd5b610e9084846108e7565b600e80546001810182557fbb7b4a454dc3493923482f07822329ed19e8244eff582cc204f8554c3620c3fd01839055546000838152600d6020908152604091829020600019939093019092558051600160a060020a0387168152918201859052818101849052517f0e6d6a9e9abfaf9dc9fa7f51c746f895bc3297c5fc30634547378f00b9e3df6d9181900360600190a150505050565b336000908152600160209081526040808320600160a060020a038616845290915281205480831115610f7c57336000908152600160209081526040808320600160a060020a0388168452909152812055610fb1565b610f8c818463ffffffff61180a16565b336000908152600160209081526040808320600160a060020a03891684529091529020555b336000818152600160209081526040808320600160a060020a0389168085529083529281902054815190815290519293927f8c5be1e5ebec7d5bd14f71427d1e84f3dd0314c0f7b2291e5b200ac8c7c3b925929181900390910190a35060019392505050565b6003546101009004600160a060020a0316331490565b6003546101009004600160a060020a0316331461104957600080fd5b6004805473ffffffffffffffffffffffffffffffffffffffff1916600160a060020a0392909216919091179055565b60065481565b600160a060020a0381166000908152602081905260409020545b919050565b6003546101009004600160a060020a031633146110b957600080fd5b600a54610100900460ff16156110ce57600080fd5b600a805461ff001916610100179055565b6003546101009004600160a060020a031633146110fb57600080fd5b600060045460a060020a900460ff16600381111561111557fe5b14806111385750600260045460a060020a900460ff16600381111561113657fe5b145b151561114357600080fd5b6004805474ff0000000000000000000000000000000000000000191660a060020a1790556040517f1f96d9685921236d8b8fc404794445857b6b79b853b606d547ab3cb4878d0d7290600090a1565b6003546101009004600160a060020a031633146111ae57600080fd5b600160a060020a03166000908152600b60205260409020805460ff19169055565b6003546000906101009004600160a060020a031633146111ee57600080fd5b5060005b8151811015611249576001600b6000848481518110151561120f57fe5b602090810291909101810151600160a060020a03168252810191909152604001600020805460ff19169115159190911790556001016111f2565b5050565b6003546101009004600160a060020a031681565b60055481565b6000600160a060020a038316151561127e57600080fd5b60035460ff16151560011461129257600080fd5b3360009081526020819052604090205482118015906112b15750600082115b15156112bc57600080fd5b336000908152602081905260409020546112dc908363ffffffff61180a16565b3360009081526020819052604080822092909255600160a060020a0385168152205461130e908363ffffffff6109a516565b600160a060020a038416600081815260208181526040918290209390935580518581529051919233927fddf252ad1be2c89b69c2b068fc378daa952ba7f163c4a11628f55a4df523b3ef9281900390910190a350600192915050565b60035460ff1681565b6003546101009004600160a060020a0316331461138f57600080fd5b600160a060020a0316600090815260208190526040812055565b600e5460009015156113bd57506000611098565b6000828152600d6020526040902054600e805484929081106113db57fe5b6000918252602090912001541492915050565b6003546101009004600160a060020a0316331461140a57600080fd5b600160045460a060020a900460ff16600381111561142457fe5b1461142e57600080fd5b6004805474ff00000000000000000000000000000000000000001916740200000000000000000000000000000000000000001790556040517f8bb4b9f09f7571abfa7c9f11ae39a25d6b4c6f0798a3fe2c7c7d708f4edefebb90600090a1565b600d6020526000908152604090205481565b336000908152600160209081526040808320600160a060020a03861684529091528120546114d4908363ffffffff6109a516565b336000818152600160209081526040808320600160a060020a0389168085529083529281902085905580519485525191937f8c5be1e5ebec7d5bd14f71427d1e84f3dd0314c0f7b2291e5b200ac8c7c3b925929081900390910190a350600192915050565b6003546000906101009004600160a060020a0316331461155857600080fd5b50600160a060020a03166000908152600b602052604090205460ff1690565b600160a060020a03918216600090815260016020908152604080832093909416825291909152205490565b6003546101009004600160a060020a031633146115be57600080fd5b600160a060020a03166000908152600b60205260409020805460ff19166001179055565b6003546101009004600160a060020a031633146115fe57600080fd5b600160045460a060020a900460ff16600381111561161857fe5b148061163b5750600260045460a060020a900460ff16600381111561163957fe5b145b151561164657600080fd5b6003805460ff191660011781556004805474ff0000000000000000000000000000000000000000191660a060020a8302179055506040517fd180ebcaa21eb03f90675218d2d628708ce938a4360f69ee8e74711cee01a99190600090a1565b6003546101009004600160a060020a031633146116c157600080fd5b600160a060020a03811615156116d657600080fd5b600354604051600160a060020a0380841692610100900416907f8be0079c531659141344cd1fd0a4f28419497f9722a3daafe3b4186f6b6457e090600090a360038054600160a060020a039092166101000274ffffffffffffffffffffffffffffffffffffffff0019909216919091179055565b6003546101009004600160a060020a0316331461176657600080fd5b6000811180156117885750600c54611784908263ffffffff61181f16565b8111155b151561179357600080fd5b60008260ff161180156117aa575060128260ff1611155b15156117b557600080fd5b6005939093556006919091556007805460ff191660ff909216919091179055600855565b600e8054829081106117e757fe5b600091825260209091200154905081565b6118028282611267565b151561124957fe5b60008282111561181957600080fd5b50900390565b60008080831161182e57600080fd5b828481151561183957fe5b049493505050505600a165627a7a723058203521674e18722e9a566ca90b80f2e72ed857521a9a73a518f8505f02337e8f9e0029",
  "source": "pragma solidity ^0.4.23;\r\n\r\nimport \"./templates/Ownable.sol\";\r\nimport \"./templates/Basic.sol\";\r\nimport \"./templates/SafeMath.sol\";\r\nimport \"./states/ICO.sol\";\r\n\r\ncontract Crowdsale is Basic, Ownable, ICOState {\r\n\r\n    using SafeMath for uint;\r\n\r\n    struct TxHash {\r\n        uint index;\r\n    }\r\n\r\n    bytes32 public symbol;\r\n    bytes32 public  tokenName;\r\n    uint8 public decimals;\r\n    uint public rate;\r\n    uint public weiRaised;\r\n    bool private reentrancyLock = false;\r\n    bool public shouldWhitelist;\r\n    mapping(address => bool) internal whitelist;\r\n    event RunIco();\r\n    event PauseIco();\r\n    event FinishIco();\r\n    event Foreign(address _recipient, uint _tokens, bytes32 _txHash);\r\n    uint private max = 2**256-1;\r\n    mapping (bytes32 => TxHash) public hashes;\r\n    bytes32[] public hashIndex;\r\n\r\n    modifier isWhitelisted(address _beneficiary) {\r\n        if (shouldWhitelist) {\r\n            require(whitelist[_beneficiary]);\r\n        }\r\n        _;\r\n    }\r\n\r\n    constructor() public {\r\n        shouldWhitelist = false;\r\n        symbol = \"TOK\";\r\n        tokenName = \"TestToken\";\r\n        rate = 3;\r\n        decimals = 18;\r\n        transfersAllowed = false;\r\n    }\r\n\r\n    function setParams(bytes32 _symbol, bytes32 _name, uint8 _decimals, uint _rate) public onlyOwner {\r\n        require(_rate > 0 && _rate <= max.div(_rate));\r\n        require(_decimals > 0 && _decimals <= 18);\r\n        symbol = _symbol;\r\n        tokenName = _name;\r\n        decimals = _decimals;\r\n        rate = _rate;\r\n    }\r\n\r\n    function setRate(uint _rate) public onlyOwner {\r\n        require(_rate > 0 && _rate <= max.div(_rate));\r\n        rate = _rate;\r\n    }\r\n\r\n    function setWhitelisting() public onlyOwner {\r\n        require(shouldWhitelist == false);\r\n        shouldWhitelist = true;\r\n    }\r\n\r\n    function unsetWhitelisting() public onlyOwner {\r\n        require(shouldWhitelist == true);\r\n        shouldWhitelist = false;\r\n    }\r\n\r\n    function increaseApproval(address _spender, uint _addedValue) public returns (bool) {\r\n        allowed[msg.sender][_spender] = allowed[msg.sender][_spender].add(_addedValue);\r\n        emit Approval(msg.sender, _spender, allowed[msg.sender][_spender]);\r\n        return true;\r\n    }\r\n\r\n    function decreaseApproval(address _spender, uint _subtractedValue) public returns (bool) {\r\n        uint oldValue = allowed[msg.sender][_spender];\r\n        if (_subtractedValue > oldValue) {\r\n            allowed[msg.sender][_spender] = 0;\r\n        } else {\r\n            allowed[msg.sender][_spender] = oldValue.sub(_subtractedValue);\r\n        }\r\n        emit Approval(msg.sender, _spender, allowed[msg.sender][_spender]);\r\n        return true;\r\n    }\r\n\r\n    function _buy(address _beneficiary, uint tokens) internal {\r\n        require(_totalSupply.add(tokens) <= max);\r\n        balances[_beneficiary] = balances[_beneficiary].add(tokens);\r\n        _totalSupply = _totalSupply.add(tokens);\r\n        emit Transfer(address(0), _beneficiary, tokens);\r\n    }\r\n\r\n    function () public payable isWhitelisted(msg.sender) {\r\n        require(!reentrancyLock);\r\n        reentrancyLock = true;\r\n        require(icoState == State.Running);\r\n        uint _weiAmount = msg.value;\r\n        address _beneficiary = msg.sender;\r\n        require(_beneficiary != address(0) && _beneficiary != owner);\r\n        require(_weiAmount != 0);\r\n        require(_weiAmount.mul(rate) <= max);\r\n        uint tokens = _weiAmount.mul(rate);\r\n        _buy(_beneficiary, tokens);\r\n        owner.transfer(_weiAmount);\r\n        require(weiRaised.add(_weiAmount) <= max);\r\n        weiRaised = weiRaised.add(_weiAmount);\r\n        reentrancyLock = false;\r\n    }\r\n\r\n    function _safeTransfer(address _to, uint _tokens) internal {\r\n        assert(transfer(_to, _tokens));\r\n    }\r\n\r\n    function reclaimToken(address _tokenOwner) public onlyOwner returns (bool) {\r\n        uint balance = balanceOf(_tokenOwner);\r\n        require(balance > 0);\r\n        _safeTransfer(_tokenOwner, balance);\r\n        return true;\r\n    }\r\n\r\n    function addToWhitelist(address _beneficiary) public onlyOwner {\r\n        whitelist[_beneficiary] = true;\r\n    }\r\n\r\n    function addManyToWhitelist(address[] _beneficiaries) public onlyOwner {\r\n        for (uint i = 0; i < _beneficiaries.length; i++) {\r\n            whitelist[_beneficiaries[i]] = true;\r\n        }\r\n    }\r\n\r\n    function removeFromWhitelist(address _beneficiary) public onlyOwner {\r\n        whitelist[_beneficiary] = false;\r\n    }\r\n\r\n    function getWhitelistStatus(address _beneficiary) public view onlyOwner returns (bool) {\r\n        return whitelist[_beneficiary];\r\n    }\r\n\r\n    function burnTokens(address _recipient) public onlyOwner {\r\n        balances[_recipient] = 0;\r\n    }\r\n\r\n    function withdraw() public onlyOwner {\r\n        owner.transfer(address(this).balance);\r\n    }\r\n\r\n    function allowTransfers() public onlyOwner {\r\n        require(transfersAllowed == false);\r\n        transfersAllowed = true;\r\n    }\r\n\r\n    function disableTransfers() public onlyOwner {\r\n        require(transfersAllowed == true);\r\n        transfersAllowed = false;\r\n    }\r\n\r\n    function startIco() public onlyOwner {\r\n        require(icoState == State.Created || icoState == State.Paused);\r\n        icoState = State.Running;\r\n        emit RunIco();\r\n    }\r\n\r\n    function pauseIco() public onlyOwner {\r\n        require(icoState == State.Running);\r\n        icoState = State.Paused;\r\n        emit PauseIco();\r\n    }\r\n\r\n    function finishIco() public onlyOwner {\r\n        require(icoState == State.Running || icoState == State.Paused);\r\n        transfersAllowed = true;\r\n        icoState = State.Finished;\r\n        emit FinishIco();\r\n    }\r\n\r\n    function hashExists(bytes32 _hash) public view returns(bool) {\r\n        if (hashIndex.length == 0) {\r\n            return false;\r\n        }\r\n        return (hashIndex[hashes[_hash].index] == _hash);\r\n    }\r\n\r\n    function foreignBuy(address _recipient, uint _tokens, bytes32 _txHash) public botOnly isWhitelisted(_recipient) {\r\n        require(hashExists(_txHash) == false);\r\n        require(_recipient != owner && _recipient != bot);\r\n        require(icoState == State.Running);\r\n        require(_tokens > 0 && _tokens <= max);\r\n        _buy(_recipient, _tokens);\r\n        hashIndex.push(_txHash);\r\n        hashes[_txHash].index = hashIndex.length - 1;\r\n        emit Foreign(_recipient, _tokens, _txHash);\r\n    }\r\n\r\n}\r\n",
  "sourcePath": "C:\\Users\\DXenu\\Desktop\\box\\token_sale_starter\\contracts\\Crowdsale.sol",
  "compiler": {
    "name": "solc",
    "version": "0.4.24+commit.e67f0147.Emscripten.clang"
  },
  "schemaVersion": "2.0.0",
  "updatedAt": "2018-06-09T08:12:40.637Z"
}