{
  "contractName": "Example",
  "abi": [
    {
      "constant": true,
      "inputs": [],
      "name": "bot",
      "outputs": [
        {
          "name": "",
          "type": "address"
        }
      ],
      "payable": false,
      "stateMutability": "view",
      "type": "function"
    },
    {
      "constant": true,
      "inputs": [],
      "name": "validate",
      "outputs": [
        {
          "name": "",
          "type": "bool"
        }
      ],
      "payable": false,
      "stateMutability": "view",
      "type": "function"
    },
    {
      "constant": false,
      "inputs": [
        {
          "name": "_bot",
          "type": "address"
        }
      ],
      "name": "setBot",
      "outputs": [],
      "payable": false,
      "stateMutability": "nonpayable",
      "type": "function"
    },
    {
      "constant": true,
      "inputs": [],
      "name": "owner",
      "outputs": [
        {
          "name": "",
          "type": "address"
        }
      ],
      "payable": false,
      "stateMutability": "view",
      "type": "function"
    },
    {
      "constant": false,
      "inputs": [
        {
          "name": "newOwner",
          "type": "address"
        }
      ],
      "name": "transferOwnership",
      "outputs": [],
      "payable": false,
      "stateMutability": "nonpayable",
      "type": "function"
    },
    {
      "anonymous": false,
      "inputs": [
        {
          "indexed": true,
          "name": "previousOwner",
          "type": "address"
        },
        {
          "indexed": true,
          "name": "newOwner",
          "type": "address"
        }
      ],
      "name": "OwnershipTransferred",
      "type": "event"
    },
    {
      "constant": false,
      "inputs": [
        {
          "name": "_addr",
          "type": "address"
        }
      ],
      "name": "setTokenSaleStarterAddress",
      "outputs": [],
      "payable": false,
      "stateMutability": "nonpayable",
      "type": "function"
    },
    {
      "constant": false,
      "inputs": [
        {
          "name": "_recipients",
          "type": "address[]"
        }
      ],
      "name": "migrate",
      "outputs": [
        {
          "name": "",
          "type": "bool"
        }
      ],
      "payable": false,
      "stateMutability": "nonpayable",
      "type": "function"
    }
  ],
  "bytecode": "0x608060405260008054600160a060020a031916331790556104ac806100256000396000f3006080604052600436106100825763ffffffff7c010000000000000000000000000000000000000000000000000000000060003504166310814c3781146100875780632e558d69146100b857806339519750146101215780636901f668146101445780636b5caec4146101595780638da5cb5b1461017a578063f2fde38b1461018f575b600080fd5b34801561009357600080fd5b5061009c6101b0565b60408051600160a060020a039092168252519081900360200190f35b3480156100c457600080fd5b506040805160206004803580820135838102808601850190965280855261010d953695939460249493850192918291850190849080828437509497506101bf9650505050505050565b604080519115158252519081900360200190f35b34801561012d57600080fd5b50610142600160a060020a0360043516610217565b005b34801561015057600080fd5b5061010d61025d565b34801561016557600080fd5b50610142600160a060020a036004351661026e565b34801561018657600080fd5b5061009c6102b4565b34801561019b57600080fd5b50610142600160a060020a03600435166102c3565b600154600160a060020a031681565b600080548190600160a060020a031633146101d957600080fd5b5060005b825181101561020e5761020683828151811015156101f757fe5b90602001906020020151610357565b6001016101dd565b50600192915050565b600054600160a060020a0316331461022e57600080fd5b6002805473ffffffffffffffffffffffffffffffffffffffff1916600160a060020a0392909216919091179055565b600054600160a060020a0316331490565b600054600160a060020a0316331461028557600080fd5b6001805473ffffffffffffffffffffffffffffffffffffffff1916600160a060020a0392909216919091179055565b600054600160a060020a031681565b600054600160a060020a031633146102da57600080fd5b600160a060020a03811615156102ef57600080fd5b60008054604051600160a060020a03808516939216917f8be0079c531659141344cd1fd0a4f28419497f9722a3daafe3b4186f6b6457e091a36000805473ffffffffffffffffffffffffffffffffffffffff1916600160a060020a0392909216919091179055565b600254604080517f70a08231000000000000000000000000000000000000000000000000000000008152600160a060020a038481166004830152915160009392909216916370a082319160248082019260209290919082900301818787803b1580156103c257600080fd5b505af11580156103d6573d6000803e3d6000fd5b505050506040513d60208110156103ec57600080fd5b50519050600081116103fd57600080fd5b600254604080517fb237f7d4000000000000000000000000000000000000000000000000000000008152600160a060020a0385811660048301529151919092169163b237f7d491602480830192600092919082900301818387803b15801561046457600080fd5b505af1158015610478573d6000803e3d6000fd5b5050505050505600a165627a7a72305820331a0d98b17a415e1b567423d200bfbd7108907780e09bf988aaca586ec7ce4d0029",
  "source": "pragma solidity ^0.4.23;\r\n\r\nimport \"../interfaces/ICrowdsale.sol\";\r\nimport \"../templates/Ownable.sol\";\r\n\r\n\r\ncontract Example is Ownable {\r\n    ICrowdsale crowdsale;\r\n\r\n    function setTokenSaleStarterAddress(address _addr) public onlyOwner {\r\n        crowdsale = ICrowdsale(_addr);\r\n    }\r\n\r\n    function _migrate(address _recipient) internal {\r\n        uint _balance = crowdsale.balanceOf(_recipient);\r\n        require(_balance > 0);\r\n        crowdsale.burnTokens(_recipient);\r\n    }\r\n\r\n    function migrate(address[] _recipients) public onlyOwner returns (bool) {\r\n        for(uint i = 0; i < _recipients.length; i++) {\r\n            _migrate(_recipients[i]);\r\n        }\r\n        return true;\r\n    }\r\n\r\n}",
  "sourcePath": "C:\\Users\\DXenu\\Desktop\\box\\token_sale_starter\\contracts\\example\\Example.sol",
  "compiler": {
    "name": "solc",
    "version": "0.4.24+commit.e67f0147.Emscripten.clang"
  },
  "schemaVersion": "2.0.0",
  "updatedAt": "2018-06-09T08:12:40.645Z"
}