{
  "contractName": "ICOState",
  "abi": [
    {
      "constant": true,
      "inputs": [],
      "name": "icoState",
      "outputs": [
        {
          "name": "",
          "type": "uint8"
        }
      ],
      "payable": false,
      "stateMutability": "view",
      "type": "function"
    }
  ],
  "bytecode": "0x60806040526000805460ff1916905534801561001a57600080fd5b5060ad806100296000396000f300608060405260043610603e5763ffffffff7c010000000000000000000000000000000000000000000000000000000060003504166344f3875681146043575b600080fd5b348015604e57600080fd5b5060556078565b60405180826003811115606457fe5b60ff16815260200191505060405180910390f35b60005460ff16815600a165627a7a72305820fa6108ecde7cbc9cc8f066a032431ace5df6d421f7bd4b2ec979f26ecaac2ed90029",
  "source": "pragma solidity ^0.4.23;\r\n\r\n\r\ncontract ICOState {\r\n\r\n    enum State {\r\n        Created,\r\n        Running,\r\n        Paused,\r\n        Finished\r\n    }\r\n\r\n    State public icoState = State.Created;\r\n\r\n}\r\n",
  "sourcePath": "C:\\Users\\DXenu\\Desktop\\box\\token_sale_starter\\contracts\\states\\ICO.sol",
  "compiler": {
    "name": "solc",
    "version": "0.4.24+commit.e67f0147.Emscripten.clang"
  },
  "schemaVersion": "2.0.0",
  "updatedAt": "2018-06-09T08:12:40.645Z"
}